{
  "address": "0xB7ca895F81F20e05A5eb11B05Cbaab3DAe5e23cd",
  "abi": [
    {
      "inputs": [
        {
          "internalType": "address",
          "name": "_aave",
          "type": "address"
        }
      ],
      "stateMutability": "nonpayable",
      "type": "constructor"
    },
    {
      "inputs": [],
      "name": "aave",
      "outputs": [
        {
          "internalType": "address",
          "name": "",
          "type": "address"
        }
      ],
      "stateMutability": "view",
      "type": "function"
    },
    {
      "inputs": [
        {
          "internalType": "bytes32",
          "name": "_bytes32",
          "type": "bytes32"
        }
      ],
      "name": "bytes32ToString",
      "outputs": [
        {
          "internalType": "string",
          "name": "",
          "type": "string"
        }
      ],
      "stateMutability": "pure",
      "type": "function"
    },
    {
      "inputs": [
        {
          "internalType": "address",
          "name": "_token",
          "type": "address"
        },
        {
          "internalType": "uint256",
          "name": "_amount",
          "type": "uint256"
        }
      ],
      "name": "deposit",
      "outputs": [],
      "stateMutability": "nonpayable",
      "type": "function"
    },
    {
      "inputs": [],
      "name": "getActiveTokensFromMarket",
      "outputs": [
        {
          "internalType": "address[]",
          "name": "tokens",
          "type": "address[]"
        }
      ],
      "stateMutability": "view",
      "type": "function"
    },
    {
      "inputs": [],
      "name": "getCurrentLiquidity",
      "outputs": [
        {
          "internalType": "uint256",
          "name": "totalCollateral",
          "type": "uint256"
        },
        {
          "internalType": "uint256",
          "name": "totalDebt",
          "type": "uint256"
        },
        {
          "internalType": "uint256",
          "name": "availableToBorrow",
          "type": "uint256"
        },
        {
          "internalType": "uint256",
          "name": "loanToValue",
          "type": "uint256"
        }
      ],
      "stateMutability": "view",
      "type": "function"
    },
    {
      "inputs": [
        {
          "internalType": "address",
          "name": "_token",
          "type": "address"
        }
      ],
      "name": "getTokenMarketData",
      "outputs": [
        {
          "components": [
            {
              "internalType": "address",
              "name": "token",
              "type": "address"
            },
            {
              "internalType": "string",
              "name": "tokenSymbol",
              "type": "string"
            },
            {
              "internalType": "string",
              "name": "tokenName",
              "type": "string"
            },
            {
              "internalType": "uint8",
              "name": "tokenDecimals",
              "type": "uint8"
            },
            {
              "internalType": "uint256",
              "name": "currentBalance",
              "type": "uint256"
            },
            {
              "internalType": "uint256",
              "name": "balanceWithDeriveToken",
              "type": "uint256"
            },
            {
              "internalType": "uint256",
              "name": "scaledBalance",
              "type": "uint256"
            },
            {
              "internalType": "uint256",
              "name": "liquidityRate",
              "type": "uint256"
            },
            {
              "internalType": "uint256",
              "name": "stableBorrowRate",
              "type": "uint256"
            },
            {
              "internalType": "uint256",
              "name": "variableBorrowRate",
              "type": "uint256"
            }
          ],
          "internalType": "struct DataTypes.TokenMarketData",
          "name": "",
          "type": "tuple"
        }
      ],
      "stateMutability": "view",
      "type": "function"
    }
  ],
  "transactionHash": "0x3ed3233fb35546305b1e5e68f26ebec69aa68c7cc651afadbd5477736f682903",
  "args": [
    "0xB53C1a33016B2DC2fF3653530bfF1848a515c8c5"
  ],
  "numDeployments": 1,
  "solcInputHash": "e7497617de4cc892bf4b2764a1c7db11",
  "bytecode": "0x60806040523480156200001157600080fd5b5060405162001e2a38038062001e2a8339818101604052810190620000379190620000e8565b806000806101000a81548173ffffffffffffffffffffffffffffffffffffffff021916908373ffffffffffffffffffffffffffffffffffffffff160217905550506200011a565b600080fd5b600073ffffffffffffffffffffffffffffffffffffffff82169050919050565b6000620000b08262000083565b9050919050565b620000c281620000a3565b8114620000ce57600080fd5b50565b600081519050620000e281620000b7565b92915050565b6000602082840312156200010157620001006200007e565b5b60006200011184828501620000d1565b91505092915050565b611d00806200012a6000396000f3fe608060405234801561001057600080fd5b50600436106100625760003560e01c806344b7cb8f1461006757806347e7ef2414610097578063819faf7b146100b35780639201de55146100d1578063a125867214610101578063d813f0741461011f575b600080fd5b610081600480360381019061007c9190610f23565b610140565b60405161008e919061110e565b60405180910390f35b6100b160048036038101906100ac919061115c565b6108a9565b005b6100bb610a3b565b6040516100c891906111ab565b60405180910390f35b6100eb60048036038101906100e691906111fc565b610a5f565b6040516100f89190611273565b60405180910390f35b610109610bfa565b6040516101169190611344565b60405180910390f35b610127610d10565b6040516101379493929190611375565b60405180910390f35b610148610e45565b60008060009054906101000a900473ffffffffffffffffffffffffffffffffffffffff16905060008173ffffffffffffffffffffffffffffffffffffffff16630261bf8b6040518163ffffffff1660e01b8152600401602060405180830381865afa1580156101bb573d6000803e3d6000fd5b505050506040513d601f19601f820116820180604052508101906101df91906113cf565b905060008273ffffffffffffffffffffffffffffffffffffffff166321f8a7217f01000000000000000000000000000000000000000000000000000000000000006040518263ffffffff1660e01b815260040161023c9190611444565b602060405180830381865afa158015610259573d6000803e3d6000fd5b505050506040513d601f19601f8201168201806040525081019061027d91906113cf565b9050610287610e45565b85816000019073ffffffffffffffffffffffffffffffffffffffff16908173ffffffffffffffffffffffffffffffffffffffff16815250508173ffffffffffffffffffffffffffffffffffffffff166328dd2d0187306040518363ffffffff1660e01b81526004016102fa92919061145f565b61012060405180830381865afa158015610318573d6000803e3d6000fd5b505050506040513d601f19601f8201168201806040525081019061033c9190611512565b90919293949596509091929394955090919293945090919293509091925090915090505081608001818152505060008373ffffffffffffffffffffffffffffffffffffffff166335ea6a75886040518263ffffffff1660e01b81526004016103a491906111ab565b61018060405180830381865afa1580156103c2573d6000803e3d6000fd5b505050506040513d601f19601f820116820180604052508101906103e6919061182e565b90508060e0015173ffffffffffffffffffffffffffffffffffffffff166370a08231306040518263ffffffff1660e01b815260040161042591906111ab565b602060405180830381865afa158015610442573d6000803e3d6000fd5b505050506040513d601f19601f82011682018060405250810190610466919061185c565b8260a00181815250508060e0015173ffffffffffffffffffffffffffffffffffffffff16631da24f3e306040518263ffffffff1660e01b81526004016104ac91906111ab565b602060405180830381865afa1580156104c9573d6000803e3d6000fd5b505050506040513d601f19601f820116820180604052508101906104ed919061185c565b8260c0018181525050739f8f72aa9304c8b593d555f12ef6589cc3a579a273ffffffffffffffffffffffffffffffffffffffff168773ffffffffffffffffffffffffffffffffffffffff1614156106c1576105b58773ffffffffffffffffffffffffffffffffffffffff166395d89b416040518163ffffffff1660e01b8152600401602060405180830381865afa15801561058c573d6000803e3d6000fd5b505050506040513d601f19601f820116820180604052508101906105b0919061189e565b610a5f565b82602001819052506106348773ffffffffffffffffffffffffffffffffffffffff166306fdde036040518163ffffffff1660e01b8152600401602060405180830381865afa15801561060b573d6000803e3d6000fd5b505050506040513d601f19601f8201168201806040525081019061062f919061189e565b610a5f565b82604001819052508673ffffffffffffffffffffffffffffffffffffffff1663313ce5676040518163ffffffff1660e01b8152600401602060405180830381865afa158015610687573d6000803e3d6000fd5b505050506040513d601f19601f820116820180604052508101906106ab91906118cb565b826060019060ff16908160ff168152505061083a565b8673ffffffffffffffffffffffffffffffffffffffff166395d89b416040518163ffffffff1660e01b8152600401600060405180830381865afa15801561070c573d6000803e3d6000fd5b505050506040513d6000823e3d601f19601f8201168201806040525081019061073591906119a3565b82602001819052508673ffffffffffffffffffffffffffffffffffffffff166306fdde036040518163ffffffff1660e01b8152600401600060405180830381865afa158015610788573d6000803e3d6000fd5b505050506040513d6000823e3d601f19601f820116820180604052508101906107b191906119a3565b82604001819052508673ffffffffffffffffffffffffffffffffffffffff1663313ce5676040518163ffffffff1660e01b8152600401602060405180830381865afa158015610804573d6000803e3d6000fd5b505050506040513d601f19601f8201168201806040525081019061082891906118cb565b826060019060ff16908160ff16815250505b80606001516fffffffffffffffffffffffffffffffff168260e00181815250508060a001516fffffffffffffffffffffffffffffffff168261010001818152505080608001516fffffffffffffffffffffffffffffffff16826101200181815250508195505050505050919050565b60008060009054906101000a900473ffffffffffffffffffffffffffffffffffffffff16905060008173ffffffffffffffffffffffffffffffffffffffff16630261bf8b6040518163ffffffff1660e01b8152600401602060405180830381865afa15801561091c573d6000803e3d6000fd5b505050506040513d601f19601f8201168201806040525081019061094091906113cf565b905060008473ffffffffffffffffffffffffffffffffffffffff1663095ea7b383866040518363ffffffff1660e01b815260040161097f9291906119ec565b6020604051808303816000875af115801561099e573d6000803e3d6000fd5b505050506040513d601f19601f820116820180604052508101906109c29190611a15565b508173ffffffffffffffffffffffffffffffffffffffff1663e8eda9df868630856040518563ffffffff1660e01b8152600401610a029493929190611a5f565b600060405180830381600087803b158015610a1c57600080fd5b505af1158015610a30573d6000803e3d6000fd5b505050505050505050565b60008054906101000a900473ffffffffffffffffffffffffffffffffffffffff1681565b606060005b60208160ff16108015610ab65750600060f81b838260ff1660208110610a8d57610a8c611aa4565b5b1a60f81b7effffffffffffffffffffffffffffffffffffffffffffffffffffffffffffff191614155b15610ace578080610ac690611b02565b915050610a64565b60008160ff1667ffffffffffffffff811115610aed57610aec6115e1565b5b6040519080825280601f01601f191660200182016040528015610b1f5781602001600182028036833780820191505090505b509050600091505b60208260ff16108015610b795750600060f81b848360ff1660208110610b5057610b4f611aa4565b5b1a60f81b7effffffffffffffffffffffffffffffffffffffffffffffffffffffffffffff191614155b15610bf057838260ff1660208110610b9457610b93611aa4565b5b1a60f81b818360ff1681518110610bae57610bad611aa4565b5b60200101907effffffffffffffffffffffffffffffffffffffffffffffffffffffffffffff1916908160001a9053508180610be890611b02565b925050610b27565b8092505050919050565b606060008060009054906101000a900473ffffffffffffffffffffffffffffffffffffffff16905060008173ffffffffffffffffffffffffffffffffffffffff16630261bf8b6040518163ffffffff1660e01b8152600401602060405180830381865afa158015610c6f573d6000803e3d6000fd5b505050506040513d601f19601f82011682018060405250810190610c9391906113cf565b90508073ffffffffffffffffffffffffffffffffffffffff1663d1946dbc6040518163ffffffff1660e01b8152600401600060405180830381865afa158015610ce0573d6000803e3d6000fd5b505050506040513d6000823e3d601f19601f82011682018060405250810190610d099190611bf4565b9250505090565b60008060008060008060009054906101000a900473ffffffffffffffffffffffffffffffffffffffff16905060008173ffffffffffffffffffffffffffffffffffffffff16630261bf8b6040518163ffffffff1660e01b8152600401602060405180830381865afa158015610d89573d6000803e3d6000fd5b505050506040513d601f19601f82011682018060405250810190610dad91906113cf565b90508073ffffffffffffffffffffffffffffffffffffffff1663bf92857c306040518263ffffffff1660e01b8152600401610de891906111ab565b60c060405180830381865afa158015610e05573d6000803e3d6000fd5b505050506040513d601f19601f82011682018060405250810190610e299190611c3d565b9091505080965081975082985083995050505050505090919293565b604051806101400160405280600073ffffffffffffffffffffffffffffffffffffffff1681526020016060815260200160608152602001600060ff1681526020016000815260200160008152602001600081526020016000815260200160008152602001600081525090565b6000604051905090565b600080fd5b600080fd5b600073ffffffffffffffffffffffffffffffffffffffff82169050919050565b6000610ef082610ec5565b9050919050565b610f0081610ee5565b8114610f0b57600080fd5b50565b600081359050610f1d81610ef7565b92915050565b600060208284031215610f3957610f38610ebb565b5b6000610f4784828501610f0e565b91505092915050565b610f5981610ee5565b82525050565b600081519050919050565b600082825260208201905092915050565b60005b83811015610f99578082015181840152602081019050610f7e565b83811115610fa8576000848401525b50505050565b6000601f19601f8301169050919050565b6000610fca82610f5f565b610fd48185610f6a565b9350610fe4818560208601610f7b565b610fed81610fae565b840191505092915050565b600060ff82169050919050565b61100e81610ff8565b82525050565b6000819050919050565b61102781611014565b82525050565b6000610140830160008301516110466000860182610f50565b506020830151848203602086015261105e8282610fbf565b915050604083015184820360408601526110788282610fbf565b915050606083015161108d6060860182611005565b5060808301516110a0608086018261101e565b5060a08301516110b360a086018261101e565b5060c08301516110c660c086018261101e565b5060e08301516110d960e086018261101e565b506101008301516110ee61010086018261101e565b5061012083015161110361012086018261101e565b508091505092915050565b60006020820190508181036000830152611128818461102d565b905092915050565b61113981611014565b811461114457600080fd5b50565b60008135905061115681611130565b92915050565b6000806040838503121561117357611172610ebb565b5b600061118185828601610f0e565b925050602061119285828601611147565b9150509250929050565b6111a581610ee5565b82525050565b60006020820190506111c0600083018461119c565b92915050565b6000819050919050565b6111d9816111c6565b81146111e457600080fd5b50565b6000813590506111f6816111d0565b92915050565b60006020828403121561121257611211610ebb565b5b6000611220848285016111e7565b91505092915050565b600082825260208201905092915050565b600061124582610f5f565b61124f8185611229565b935061125f818560208601610f7b565b61126881610fae565b840191505092915050565b6000602082019050818103600083015261128d818461123a565b905092915050565b600081519050919050565b600082825260208201905092915050565b6000819050602082019050919050565b60006112cd8383610f50565b60208301905092915050565b6000602082019050919050565b60006112f182611295565b6112fb81856112a0565b9350611306836112b1565b8060005b8381101561133757815161131e88826112c1565b9750611329836112d9565b92505060018101905061130a565b5085935050505092915050565b6000602082019050818103600083015261135e81846112e6565b905092915050565b61136f81611014565b82525050565b600060808201905061138a6000830187611366565b6113976020830186611366565b6113a46040830185611366565b6113b16060830184611366565b95945050505050565b6000815190506113c981610ef7565b92915050565b6000602082840312156113e5576113e4610ebb565b5b60006113f3848285016113ba565b91505092915050565b6000819050919050565b60008160001b9050919050565b600061142e611429611424846113fc565b611406565b6111c6565b9050919050565b61143e81611413565b82525050565b60006020820190506114596000830184611435565b92915050565b6000604082019050611474600083018561119c565b611481602083018461119c565b9392505050565b60008151905061149781611130565b92915050565b600064ffffffffff82169050919050565b6114b78161149d565b81146114c257600080fd5b50565b6000815190506114d4816114ae565b92915050565b60008115159050919050565b6114ef816114da565b81146114fa57600080fd5b50565b60008151905061150c816114e6565b92915050565b60008060008060008060008060006101208a8c03121561153557611534610ebb565b5b60006115438c828d01611488565b99505060206115548c828d01611488565b98505060406115658c828d01611488565b97505060606115768c828d01611488565b96505060806115878c828d01611488565b95505060a06115988c828d01611488565b94505060c06115a98c828d01611488565b93505060e06115ba8c828d016114c5565b9250506101006115cc8c828d016114fd565b9150509295985092959850929598565b600080fd5b7f4e487b7100000000000000000000000000000000000000000000000000000000600052604160045260246000fd5b61161982610fae565b810181811067ffffffffffffffff82111715611638576116376115e1565b5b80604052505050565b600061164b610eb1565b90506116578282611610565b919050565b600060208284031215611672576116716115dc565b5b61167c6020611641565b9050600061168c84828501611488565b60008301525092915050565b60006fffffffffffffffffffffffffffffffff82169050919050565b6116bd81611698565b81146116c857600080fd5b50565b6000815190506116da816116b4565b92915050565b6116e981610ff8565b81146116f457600080fd5b50565b600081519050611706816116e0565b92915050565b60006101808284031215611723576117226115dc565b5b61172e610180611641565b9050600061173e8482850161165c565b6000830152506020611752848285016116cb565b6020830152506040611766848285016116cb565b604083015250606061177a848285016116cb565b606083015250608061178e848285016116cb565b60808301525060a06117a2848285016116cb565b60a08301525060c06117b6848285016114c5565b60c08301525060e06117ca848285016113ba565b60e0830152506101006117df848285016113ba565b610100830152506101206117f5848285016113ba565b6101208301525061014061180b848285016113ba565b61014083015250610160611821848285016116f7565b6101608301525092915050565b6000610180828403121561184557611844610ebb565b5b60006118538482850161170c565b91505092915050565b60006020828403121561187257611871610ebb565b5b600061188084828501611488565b91505092915050565b600081519050611898816111d0565b92915050565b6000602082840312156118b4576118b3610ebb565b5b60006118c284828501611889565b91505092915050565b6000602082840312156118e1576118e0610ebb565b5b60006118ef848285016116f7565b91505092915050565b600080fd5b600080fd5b600067ffffffffffffffff82111561191d5761191c6115e1565b5b61192682610fae565b9050602081019050919050565b600061194661194184611902565b611641565b905082815260208101848484011115611962576119616118fd565b5b61196d848285610f7b565b509392505050565b600082601f83011261198a576119896118f8565b5b815161199a848260208601611933565b91505092915050565b6000602082840312156119b9576119b8610ebb565b5b600082015167ffffffffffffffff8111156119d7576119d6610ec0565b5b6119e384828501611975565b91505092915050565b6000604082019050611a01600083018561119c565b611a0e6020830184611366565b9392505050565b600060208284031215611a2b57611a2a610ebb565b5b6000611a39848285016114fd565b91505092915050565b600061ffff82169050919050565b611a5981611a42565b82525050565b6000608082019050611a74600083018761119c565b611a816020830186611366565b611a8e604083018561119c565b611a9b6060830184611a50565b95945050505050565b7f4e487b7100000000000000000000000000000000000000000000000000000000600052603260045260246000fd5b7f4e487b7100000000000000000000000000000000000000000000000000000000600052601160045260246000fd5b6000611b0d82610ff8565b915060ff821415611b2157611b20611ad3565b5b600182019050919050565b600067ffffffffffffffff821115611b4757611b466115e1565b5b602082029050602081019050919050565b600080fd5b6000611b70611b6b84611b2c565b611641565b90508083825260208201905060208402830185811115611b9357611b92611b58565b5b835b81811015611bbc5780611ba888826113ba565b845260208401935050602081019050611b95565b5050509392505050565b600082601f830112611bdb57611bda6118f8565b5b8151611beb848260208601611b5d565b91505092915050565b600060208284031215611c0a57611c09610ebb565b5b600082015167ffffffffffffffff811115611c2857611c27610ec0565b5b611c3484828501611bc6565b91505092915050565b60008060008060008060c08789031215611c5a57611c59610ebb565b5b6000611c6889828a01611488565b9650506020611c7989828a01611488565b9550506040611c8a89828a01611488565b9450506060611c9b89828a01611488565b9350506080611cac89828a01611488565b92505060a0611cbd89828a01611488565b915050929550929550929556fea264697066735822122092c7e1d44202724b3728ef921c95c916771e224e622f2f7064d34cc38e66237464736f6c634300080a0033",
  "devdoc": {
    "kind": "dev",
    "methods": {},
    "version": 1
  },
  "userdoc": {
    "kind": "user",
    "methods": {},
    "version": 1
  },
  "storageLayout": {
    "storage": [
      {
        "astId": 2424,
        "contract": "contracts/LendPoolCore.sol:LendPoolCore",
        "label": "aave",
        "offset": 0,
        "slot": "0",
        "type": "t_address"
      }
    ],
    "types": {
      "t_address": {
        "encoding": "inplace",
        "label": "address",
        "numberOfBytes": "20"
      }
    }
  }
}