{
  "address": "0x2d13826359803522cCe7a4Cfa2c1b582303DD0B4",
  "abi": [
    {
      "inputs": [
        {
          "internalType": "address",
          "name": "_core",
          "type": "address"
        }
      ],
      "stateMutability": "nonpayable",
      "type": "constructor"
    },
    {
      "inputs": [],
      "name": "LendingPool__InsufficientAmountForDeposit",
      "type": "error"
    },
    {
      "anonymous": false,
      "inputs": [
        {
          "indexed": true,
          "internalType": "address",
          "name": "user",
          "type": "address"
        },
        {
          "indexed": true,
          "internalType": "address",
          "name": "token",
          "type": "address"
        },
        {
          "indexed": false,
          "internalType": "uint256",
          "name": "amount",
          "type": "uint256"
        }
      ],
      "name": "DepositMade",
      "type": "event"
    },
    {
      "anonymous": false,
      "inputs": [
        {
          "indexed": true,
          "internalType": "address",
          "name": "previousOwner",
          "type": "address"
        },
        {
          "indexed": true,
          "internalType": "address",
          "name": "newOwner",
          "type": "address"
        }
      ],
      "name": "OwnershipTransferred",
      "type": "event"
    },
    {
      "inputs": [
        {
          "internalType": "contract ERC20",
          "name": "_token",
          "type": "address"
        },
        {
          "internalType": "uint256",
          "name": "_amount",
          "type": "uint256"
        }
      ],
      "name": "deposit",
      "outputs": [],
      "stateMutability": "nonpayable",
      "type": "function"
    },
    {
      "inputs": [],
      "name": "getAvailableTokens",
      "outputs": [
        {
          "components": [
            {
              "internalType": "address",
              "name": "token",
              "type": "address"
            },
            {
              "internalType": "string",
              "name": "tokenSymbol",
              "type": "string"
            },
            {
              "internalType": "string",
              "name": "tokenName",
              "type": "string"
            },
            {
              "internalType": "uint8",
              "name": "tokenDecimals",
              "type": "uint8"
            },
            {
              "internalType": "uint256",
              "name": "currentBalance",
              "type": "uint256"
            },
            {
              "internalType": "uint256",
              "name": "balanceWithDeriveToken",
              "type": "uint256"
            },
            {
              "internalType": "uint256",
              "name": "scaledBalance",
              "type": "uint256"
            },
            {
              "internalType": "uint256",
              "name": "liquidityRate",
              "type": "uint256"
            },
            {
              "internalType": "uint256",
              "name": "stableBorrowRate",
              "type": "uint256"
            },
            {
              "internalType": "uint256",
              "name": "variableBorrowRate",
              "type": "uint256"
            }
          ],
          "internalType": "struct DataTypes.TokenMarketData[]",
          "name": "tokensMarketData",
          "type": "tuple[]"
        }
      ],
      "stateMutability": "view",
      "type": "function"
    },
    {
      "inputs": [],
      "name": "getLiquidity",
      "outputs": [
        {
          "components": [
            {
              "internalType": "uint256",
              "name": "totalSupply",
              "type": "uint256"
            },
            {
              "internalType": "uint256",
              "name": "totalCollateral",
              "type": "uint256"
            },
            {
              "internalType": "uint256",
              "name": "totalDebt",
              "type": "uint256"
            },
            {
              "internalType": "uint256",
              "name": "availableToBorrow",
              "type": "uint256"
            },
            {
              "internalType": "uint256",
              "name": "loanToValue",
              "type": "uint256"
            }
          ],
          "internalType": "struct DataTypes.PoolLiquidity",
          "name": "",
          "type": "tuple"
        }
      ],
      "stateMutability": "view",
      "type": "function"
    },
    {
      "inputs": [],
      "name": "owner",
      "outputs": [
        {
          "internalType": "address",
          "name": "",
          "type": "address"
        }
      ],
      "stateMutability": "view",
      "type": "function"
    },
    {
      "inputs": [],
      "name": "renounceOwnership",
      "outputs": [],
      "stateMutability": "nonpayable",
      "type": "function"
    },
    {
      "inputs": [
        {
          "internalType": "address",
          "name": "_token",
          "type": "address"
        }
      ],
      "name": "tokenBalance",
      "outputs": [
        {
          "internalType": "uint256",
          "name": "",
          "type": "uint256"
        }
      ],
      "stateMutability": "view",
      "type": "function"
    },
    {
      "inputs": [
        {
          "internalType": "address",
          "name": "",
          "type": "address"
        }
      ],
      "name": "tokenBalances",
      "outputs": [
        {
          "internalType": "uint256",
          "name": "",
          "type": "uint256"
        }
      ],
      "stateMutability": "view",
      "type": "function"
    },
    {
      "inputs": [
        {
          "internalType": "address",
          "name": "newOwner",
          "type": "address"
        }
      ],
      "name": "transferOwnership",
      "outputs": [],
      "stateMutability": "nonpayable",
      "type": "function"
    },
    {
      "inputs": [
        {
          "internalType": "address",
          "name": "_user",
          "type": "address"
        },
        {
          "internalType": "address",
          "name": "_token",
          "type": "address"
        }
      ],
      "name": "userBalance",
      "outputs": [
        {
          "internalType": "uint256",
          "name": "",
          "type": "uint256"
        }
      ],
      "stateMutability": "view",
      "type": "function"
    },
    {
      "inputs": [
        {
          "internalType": "address",
          "name": "",
          "type": "address"
        },
        {
          "internalType": "address",
          "name": "",
          "type": "address"
        }
      ],
      "name": "userBalances",
      "outputs": [
        {
          "internalType": "uint256",
          "name": "",
          "type": "uint256"
        }
      ],
      "stateMutability": "view",
      "type": "function"
    }
  ],
  "transactionHash": "0x4eb261e22917e571f50ba453c933b4e445640c162ccfd6b16b878b0b89c8cf90",
  "args": [
    "0xB7ca895F81F20e05A5eb11B05Cbaab3DAe5e23cd"
  ],
  "numDeployments": 1,
  "solcInputHash": "e7497617de4cc892bf4b2764a1c7db11",
  "bytecode": "0x60806040523480156200001157600080fd5b506040516200205c3803806200205c8339818101604052810190620000379190620001dc565b620000576200004b620000a660201b60201c565b620000ae60201b60201c565b6001808190555080600260006101000a81548173ffffffffffffffffffffffffffffffffffffffff021916908373ffffffffffffffffffffffffffffffffffffffff160217905550506200020e565b600033905090565b60008060009054906101000a900473ffffffffffffffffffffffffffffffffffffffff169050816000806101000a81548173ffffffffffffffffffffffffffffffffffffffff021916908373ffffffffffffffffffffffffffffffffffffffff1602179055508173ffffffffffffffffffffffffffffffffffffffff168173ffffffffffffffffffffffffffffffffffffffff167f8be0079c531659141344cd1fd0a4f28419497f9722a3daafe3b4186f6b6457e060405160405180910390a35050565b600080fd5b600073ffffffffffffffffffffffffffffffffffffffff82169050919050565b6000620001a48262000177565b9050919050565b620001b68162000197565b8114620001c257600080fd5b50565b600081519050620001d681620001ab565b92915050565b600060208284031215620001f557620001f462000172565b5b60006200020584828501620001c5565b91505092915050565b611e3e806200021e6000396000f3fe608060405234801561001057600080fd5b506004361061009e5760003560e01c80638da5cb5b116100665780638da5cb5b14610147578063adb5198014610165578063e35568cb14610195578063eedc966a146101b3578063f2fde38b146101e35761009e565b80630910a510146100a357806347e7ef24146100c1578063523fba7f146100dd57806362a4b0a91461010d578063715018a61461013d575b600080fd5b6100ab6101ff565b6040516100b89190610f5f565b60405180910390f35b6100db60048036038101906100d6919061102a565b6102cb565b005b6100f760048036038101906100f29190611096565b6105be565b60405161010491906110d2565b60405180910390f35b610127600480360381019061012291906110ed565b6105d6565b60405161013491906110d2565b60405180910390f35b61014561065d565b005b61014f610671565b60405161015c919061113c565b60405180910390f35b61017f600480360381019061017a91906110ed565b61069a565b60405161018c91906110d2565b60405180910390f35b61019d6106bf565b6040516101aa91906113be565b60405180910390f35b6101cd60048036038101906101c89190611096565b6108b5565b6040516101da91906110d2565b60405180910390f35b6101fd60048036038101906101f89190611096565b6108fe565b005b610207610e43565b61020f610e43565b600260009054906101000a900473ffffffffffffffffffffffffffffffffffffffff1673ffffffffffffffffffffffffffffffffffffffff1663d813f0746040518163ffffffff1660e01b8152600401608060405180830381865afa15801561027c573d6000803e3d6000fd5b505050506040513d601f19601f820116820180604052508101906102a091906113f5565b8460200185604001866060018760800184815250848152508481525084815250505050508091505090565b6102d3610982565b808273ffffffffffffffffffffffffffffffffffffffff166370a08231336040518263ffffffff1660e01b815260040161030d919061113c565b602060405180830381865afa15801561032a573d6000803e3d6000fd5b505050506040513d601f19601f8201168201806040525081019061034e919061145c565b1015610386576040517f8c6cd37100000000000000000000000000000000000000000000000000000000815260040160405180910390fd5b6103d533600260009054906101000a900473ffffffffffffffffffffffffffffffffffffffff16838573ffffffffffffffffffffffffffffffffffffffff166109d2909392919063ffffffff16565b80600360008473ffffffffffffffffffffffffffffffffffffffff1673ffffffffffffffffffffffffffffffffffffffff168152602001908152602001600020600082825461042491906114b8565b9250508190555080600460003373ffffffffffffffffffffffffffffffffffffffff1673ffffffffffffffffffffffffffffffffffffffff16815260200190815260200160002060008473ffffffffffffffffffffffffffffffffffffffff1673ffffffffffffffffffffffffffffffffffffffff16815260200190815260200160002060008282546104b791906114b8565b92505081905550600260009054906101000a900473ffffffffffffffffffffffffffffffffffffffff1673ffffffffffffffffffffffffffffffffffffffff166347e7ef2483836040518363ffffffff1660e01b815260040161051b92919061150e565b600060405180830381600087803b15801561053557600080fd5b505af1158015610549573d6000803e3d6000fd5b505050508173ffffffffffffffffffffffffffffffffffffffff163373ffffffffffffffffffffffffffffffffffffffff167f1de3ece35391f6bba650736f2d5d3f12e2cfc54538a340cc5d762d34ca449de7836040516105aa91906110d2565b60405180910390a36105ba610a5b565b5050565b60036020528060005260406000206000915090505481565b6000600460008473ffffffffffffffffffffffffffffffffffffffff1673ffffffffffffffffffffffffffffffffffffffff16815260200190815260200160002060008373ffffffffffffffffffffffffffffffffffffffff1673ffffffffffffffffffffffffffffffffffffffff16815260200190815260200160002054905092915050565b610665610a64565b61066f6000610ae2565b565b60008060009054906101000a900473ffffffffffffffffffffffffffffffffffffffff16905090565b6004602052816000526040600020602052806000526040600020600091509150505481565b60606000600260009054906101000a900473ffffffffffffffffffffffffffffffffffffffff1673ffffffffffffffffffffffffffffffffffffffff1663a12586726040518163ffffffff1660e01b8152600401600060405180830381865afa158015610730573d6000803e3d6000fd5b505050506040513d6000823e3d601f19601f820116820180604052508101906107599190611694565b90506000815167ffffffffffffffff8111156107785761077761153c565b5b6040519080825280602002602001820160405280156107b157816020015b61079e610e72565b8152602001906001900390816107965790505b50905060005b82518110156108ac57600260009054906101000a900473ffffffffffffffffffffffffffffffffffffffff1673ffffffffffffffffffffffffffffffffffffffff166344b7cb8f848381518110610811576108106116dd565b5b60200260200101516040518263ffffffff1660e01b8152600401610835919061113c565b600060405180830381865afa158015610852573d6000803e3d6000fd5b505050506040513d6000823e3d601f19601f8201168201806040525081019061087b9190611916565b82828151811061088e5761088d6116dd565b5b602002602001018190525080806108a49061195f565b9150506107b7565b50809250505090565b6000600360008373ffffffffffffffffffffffffffffffffffffffff1673ffffffffffffffffffffffffffffffffffffffff168152602001908152602001600020549050919050565b610906610a64565b600073ffffffffffffffffffffffffffffffffffffffff168173ffffffffffffffffffffffffffffffffffffffff161415610976576040517f08c379a000000000000000000000000000000000000000000000000000000000815260040161096d90611a2b565b60405180910390fd5b61097f81610ae2565b50565b600260015414156109c8576040517f08c379a00000000000000000000000000000000000000000000000000000000081526004016109bf90611a97565b60405180910390fd5b6002600181905550565b610a55846323b872dd60e01b8585856040516024016109f393929190611ab7565b604051602081830303815290604052907bffffffffffffffffffffffffffffffffffffffffffffffffffffffff19166020820180517bffffffffffffffffffffffffffffffffffffffffffffffffffffffff8381831617835250505050610ba6565b50505050565b60018081905550565b610a6c610c6d565b73ffffffffffffffffffffffffffffffffffffffff16610a8a610671565b73ffffffffffffffffffffffffffffffffffffffff1614610ae0576040517f08c379a0000000000000000000000000000000000000000000000000000000008152600401610ad790611b3a565b60405180910390fd5b565b60008060009054906101000a900473ffffffffffffffffffffffffffffffffffffffff169050816000806101000a81548173ffffffffffffffffffffffffffffffffffffffff021916908373ffffffffffffffffffffffffffffffffffffffff1602179055508173ffffffffffffffffffffffffffffffffffffffff168173ffffffffffffffffffffffffffffffffffffffff167f8be0079c531659141344cd1fd0a4f28419497f9722a3daafe3b4186f6b6457e060405160405180910390a35050565b6000610c08826040518060400160405280602081526020017f5361666545524332303a206c6f772d6c6576656c2063616c6c206661696c65648152508573ffffffffffffffffffffffffffffffffffffffff16610c759092919063ffffffff16565b9050600081511115610c685780806020019051810190610c289190611b92565b610c67576040517f08c379a0000000000000000000000000000000000000000000000000000000008152600401610c5e90611c31565b60405180910390fd5b5b505050565b600033905090565b6060610c848484600085610c8d565b90509392505050565b606082471015610cd2576040517f08c379a0000000000000000000000000000000000000000000000000000000008152600401610cc990611cc3565b60405180910390fd5b6000808673ffffffffffffffffffffffffffffffffffffffff168587604051610cfb9190611d2a565b60006040518083038185875af1925050503d8060008114610d38576040519150601f19603f3d011682016040523d82523d6000602084013e610d3d565b606091505b5091509150610d4e87838387610d5a565b92505050949350505050565b60608315610dbd57600083511415610db557610d7585610dd0565b610db4576040517f08c379a0000000000000000000000000000000000000000000000000000000008152600401610dab90611d8d565b60405180910390fd5b5b829050610dc8565b610dc78383610df3565b5b949350505050565b6000808273ffffffffffffffffffffffffffffffffffffffff163b119050919050565b600082511115610e065781518083602001fd5b806040517f08c379a0000000000000000000000000000000000000000000000000000000008152600401610e3a9190611de6565b60405180910390fd5b6040518060a0016040528060008152602001600081526020016000815260200160008152602001600081525090565b604051806101400160405280600073ffffffffffffffffffffffffffffffffffffffff1681526020016060815260200160608152602001600060ff1681526020016000815260200160008152602001600081526020016000815260200160008152602001600081525090565b6000819050919050565b610ef181610ede565b82525050565b60a082016000820151610f0d6000850182610ee8565b506020820151610f206020850182610ee8565b506040820151610f336040850182610ee8565b506060820151610f466060850182610ee8565b506080820151610f596080850182610ee8565b50505050565b600060a082019050610f746000830184610ef7565b92915050565b6000604051905090565b600080fd5b600080fd5b600073ffffffffffffffffffffffffffffffffffffffff82169050919050565b6000610fb982610f8e565b9050919050565b6000610fcb82610fae565b9050919050565b610fdb81610fc0565b8114610fe657600080fd5b50565b600081359050610ff881610fd2565b92915050565b61100781610ede565b811461101257600080fd5b50565b60008135905061102481610ffe565b92915050565b6000806040838503121561104157611040610f84565b5b600061104f85828601610fe9565b925050602061106085828601611015565b9150509250929050565b61107381610fae565b811461107e57600080fd5b50565b6000813590506110908161106a565b92915050565b6000602082840312156110ac576110ab610f84565b5b60006110ba84828501611081565b91505092915050565b6110cc81610ede565b82525050565b60006020820190506110e760008301846110c3565b92915050565b6000806040838503121561110457611103610f84565b5b600061111285828601611081565b925050602061112385828601611081565b9150509250929050565b61113681610fae565b82525050565b6000602082019050611151600083018461112d565b92915050565b600081519050919050565b600082825260208201905092915050565b6000819050602082019050919050565b61118c81610fae565b82525050565b600081519050919050565b600082825260208201905092915050565b60005b838110156111cc5780820151818401526020810190506111b1565b838111156111db576000848401525b50505050565b6000601f19601f8301169050919050565b60006111fd82611192565b611207818561119d565b93506112178185602086016111ae565b611220816111e1565b840191505092915050565b600060ff82169050919050565b6112418161122b565b82525050565b6000610140830160008301516112606000860182611183565b506020830151848203602086015261127882826111f2565b9150506040830151848203604086015261129282826111f2565b91505060608301516112a76060860182611238565b5060808301516112ba6080860182610ee8565b5060a08301516112cd60a0860182610ee8565b5060c08301516112e060c0860182610ee8565b5060e08301516112f360e0860182610ee8565b50610100830151611308610100860182610ee8565b5061012083015161131d610120860182610ee8565b508091505092915050565b60006113348383611247565b905092915050565b6000602082019050919050565b600061135482611157565b61135e8185611162565b93508360208202850161137085611173565b8060005b858110156113ac578484038952815161138d8582611328565b94506113988361133c565b925060208a01995050600181019050611374565b50829750879550505050505092915050565b600060208201905081810360008301526113d88184611349565b905092915050565b6000815190506113ef81610ffe565b92915050565b6000806000806080858703121561140f5761140e610f84565b5b600061141d878288016113e0565b945050602061142e878288016113e0565b935050604061143f878288016113e0565b9250506060611450878288016113e0565b91505092959194509250565b60006020828403121561147257611471610f84565b5b6000611480848285016113e0565b91505092915050565b7f4e487b7100000000000000000000000000000000000000000000000000000000600052601160045260246000fd5b60006114c382610ede565b91506114ce83610ede565b9250827fffffffffffffffffffffffffffffffffffffffffffffffffffffffffffffffff0382111561150357611502611489565b5b828201905092915050565b6000604082019050611523600083018561112d565b61153060208301846110c3565b9392505050565b600080fd5b7f4e487b7100000000000000000000000000000000000000000000000000000000600052604160045260246000fd5b611574826111e1565b810181811067ffffffffffffffff821117156115935761159261153c565b5b80604052505050565b60006115a6610f7a565b90506115b2828261156b565b919050565b600067ffffffffffffffff8211156115d2576115d161153c565b5b602082029050602081019050919050565b600080fd5b6000815190506115f78161106a565b92915050565b600061161061160b846115b7565b61159c565b90508083825260208201905060208402830185811115611633576116326115e3565b5b835b8181101561165c578061164888826115e8565b845260208401935050602081019050611635565b5050509392505050565b600082601f83011261167b5761167a611537565b5b815161168b8482602086016115fd565b91505092915050565b6000602082840312156116aa576116a9610f84565b5b600082015167ffffffffffffffff8111156116c8576116c7610f89565b5b6116d484828501611666565b91505092915050565b7f4e487b7100000000000000000000000000000000000000000000000000000000600052603260045260246000fd5b600080fd5b600080fd5b600080fd5b600067ffffffffffffffff8211156117365761173561153c565b5b61173f826111e1565b9050602081019050919050565b600061175f61175a8461171b565b61159c565b90508281526020810184848401111561177b5761177a611716565b5b6117868482856111ae565b509392505050565b600082601f8301126117a3576117a2611537565b5b81516117b384826020860161174c565b91505092915050565b6117c58161122b565b81146117d057600080fd5b50565b6000815190506117e2816117bc565b92915050565b600061014082840312156117ff576117fe61170c565b5b61180a61014061159c565b9050600061181a848285016115e8565b600083015250602082015167ffffffffffffffff81111561183e5761183d611711565b5b61184a8482850161178e565b602083015250604082015167ffffffffffffffff81111561186e5761186d611711565b5b61187a8482850161178e565b604083015250606061188e848285016117d3565b60608301525060806118a2848285016113e0565b60808301525060a06118b6848285016113e0565b60a08301525060c06118ca848285016113e0565b60c08301525060e06118de848285016113e0565b60e0830152506101006118f3848285016113e0565b61010083015250610120611909848285016113e0565b6101208301525092915050565b60006020828403121561192c5761192b610f84565b5b600082015167ffffffffffffffff81111561194a57611949610f89565b5b611956848285016117e8565b91505092915050565b600061196a82610ede565b91507fffffffffffffffffffffffffffffffffffffffffffffffffffffffffffffffff82141561199d5761199c611489565b5b600182019050919050565b600082825260208201905092915050565b7f4f776e61626c653a206e6577206f776e657220697320746865207a65726f206160008201527f6464726573730000000000000000000000000000000000000000000000000000602082015250565b6000611a156026836119a8565b9150611a20826119b9565b604082019050919050565b60006020820190508181036000830152611a4481611a08565b9050919050565b7f5265656e7472616e637947756172643a207265656e7472616e742063616c6c00600082015250565b6000611a81601f836119a8565b9150611a8c82611a4b565b602082019050919050565b60006020820190508181036000830152611ab081611a74565b9050919050565b6000606082019050611acc600083018661112d565b611ad9602083018561112d565b611ae660408301846110c3565b949350505050565b7f4f776e61626c653a2063616c6c6572206973206e6f7420746865206f776e6572600082015250565b6000611b246020836119a8565b9150611b2f82611aee565b602082019050919050565b60006020820190508181036000830152611b5381611b17565b9050919050565b60008115159050919050565b611b6f81611b5a565b8114611b7a57600080fd5b50565b600081519050611b8c81611b66565b92915050565b600060208284031215611ba857611ba7610f84565b5b6000611bb684828501611b7d565b91505092915050565b7f5361666545524332303a204552433230206f7065726174696f6e20646964206e60008201527f6f74207375636365656400000000000000000000000000000000000000000000602082015250565b6000611c1b602a836119a8565b9150611c2682611bbf565b604082019050919050565b60006020820190508181036000830152611c4a81611c0e565b9050919050565b7f416464726573733a20696e73756666696369656e742062616c616e636520666f60008201527f722063616c6c0000000000000000000000000000000000000000000000000000602082015250565b6000611cad6026836119a8565b9150611cb882611c51565b604082019050919050565b60006020820190508181036000830152611cdc81611ca0565b9050919050565b600081519050919050565b600081905092915050565b6000611d0482611ce3565b611d0e8185611cee565b9350611d1e8185602086016111ae565b80840191505092915050565b6000611d368284611cf9565b915081905092915050565b7f416464726573733a2063616c6c20746f206e6f6e2d636f6e7472616374000000600082015250565b6000611d77601d836119a8565b9150611d8282611d41565b602082019050919050565b60006020820190508181036000830152611da681611d6a565b9050919050565b6000611db882611192565b611dc281856119a8565b9350611dd28185602086016111ae565b611ddb816111e1565b840191505092915050565b60006020820190508181036000830152611e008184611dad565b90509291505056fea2646970667358221220f001592ac84b5568d0537d01e89f7934bf52356564933217437cda00ec74bea264736f6c634300080a0033",
  "devdoc": {
    "kind": "dev",
    "methods": {
      "owner()": {
        "details": "Returns the address of the current owner."
      },
      "renounceOwnership()": {
        "details": "Leaves the contract without owner. It will not be possible to call `onlyOwner` functions anymore. Can only be called by the current owner. NOTE: Renouncing ownership will leave the contract without an owner, thereby removing any functionality that is only available to the owner."
      },
      "transferOwnership(address)": {
        "details": "Transfers ownership of the contract to a new account (`newOwner`). Can only be called by the current owner."
      }
    },
    "version": 1
  },
  "userdoc": {
    "kind": "user",
    "methods": {},
    "version": 1
  },
  "storageLayout": {
    "storage": [
      {
        "astId": 7,
        "contract": "contracts/LendPool.sol:LendPool",
        "label": "_owner",
        "offset": 0,
        "slot": "0",
        "type": "t_address"
      },
      {
        "astId": 123,
        "contract": "contracts/LendPool.sol:LendPool",
        "label": "_status",
        "offset": 0,
        "slot": "1",
        "type": "t_uint256"
      },
      {
        "astId": 2181,
        "contract": "contracts/LendPool.sol:LendPool",
        "label": "core",
        "offset": 0,
        "slot": "2",
        "type": "t_contract(LendPoolCore)2811"
      },
      {
        "astId": 2185,
        "contract": "contracts/LendPool.sol:LendPool",
        "label": "tokenBalances",
        "offset": 0,
        "slot": "3",
        "type": "t_mapping(t_address,t_uint256)"
      },
      {
        "astId": 2191,
        "contract": "contracts/LendPool.sol:LendPool",
        "label": "userBalances",
        "offset": 0,
        "slot": "4",
        "type": "t_mapping(t_address,t_mapping(t_address,t_uint256))"
      }
    ],
    "types": {
      "t_address": {
        "encoding": "inplace",
        "label": "address",
        "numberOfBytes": "20"
      },
      "t_contract(LendPoolCore)2811": {
        "encoding": "inplace",
        "label": "contract LendPoolCore",
        "numberOfBytes": "20"
      },
      "t_mapping(t_address,t_mapping(t_address,t_uint256))": {
        "encoding": "mapping",
        "key": "t_address",
        "label": "mapping(address => mapping(address => uint256))",
        "numberOfBytes": "32",
        "value": "t_mapping(t_address,t_uint256)"
      },
      "t_mapping(t_address,t_uint256)": {
        "encoding": "mapping",
        "key": "t_address",
        "label": "mapping(address => uint256)",
        "numberOfBytes": "32",
        "value": "t_uint256"
      },
      "t_uint256": {
        "encoding": "inplace",
        "label": "uint256",
        "numberOfBytes": "32"
      }
    }
  }
}