{
  "address": "0xd0EC100F1252a53322051a95CF05c32f0C174354",
  "abi": [
    {
      "inputs": [
        {
          "internalType": "address",
          "name": "_dai",
          "type": "address"
        },
        {
          "internalType": "address",
          "name": "_weth",
          "type": "address"
        },
        {
          "internalType": "contract ISwapRouter",
          "name": "_swapRouter",
          "type": "address"
        }
      ],
      "stateMutability": "nonpayable",
      "type": "constructor"
    },
    {
      "anonymous": false,
      "inputs": [
        {
          "indexed": true,
          "internalType": "address",
          "name": "spender",
          "type": "address"
        },
        {
          "indexed": false,
          "internalType": "uint256",
          "name": "amountIn",
          "type": "uint256"
        },
        {
          "indexed": false,
          "internalType": "uint256",
          "name": "amountOut",
          "type": "uint256"
        }
      ],
      "name": "WethToDaiCompleted",
      "type": "event"
    },
    {
      "inputs": [],
      "name": "dai",
      "outputs": [
        {
          "internalType": "address",
          "name": "",
          "type": "address"
        }
      ],
      "stateMutability": "view",
      "type": "function"
    },
    {
      "inputs": [],
      "name": "swapFee",
      "outputs": [
        {
          "internalType": "uint24",
          "name": "",
          "type": "uint24"
        }
      ],
      "stateMutability": "view",
      "type": "function"
    },
    {
      "inputs": [],
      "name": "swapRouter",
      "outputs": [
        {
          "internalType": "contract ISwapRouter",
          "name": "",
          "type": "address"
        }
      ],
      "stateMutability": "view",
      "type": "function"
    },
    {
      "inputs": [
        {
          "internalType": "uint256",
          "name": "amountIn",
          "type": "uint256"
        }
      ],
      "name": "swapWETHForDai",
      "outputs": [
        {
          "internalType": "uint256",
          "name": "amountOut",
          "type": "uint256"
        }
      ],
      "stateMutability": "nonpayable",
      "type": "function"
    },
    {
      "inputs": [],
      "name": "weth",
      "outputs": [
        {
          "internalType": "address",
          "name": "",
          "type": "address"
        }
      ],
      "stateMutability": "view",
      "type": "function"
    }
  ],
  "transactionHash": "0xb7f046d51b61629e548e2b9f8c3c440e89214cdd1a82952485c0d1c411fa60f4",
  "args": [
    "0x6B175474E89094C44Da98b954EedeAC495271d0F",
    "0xC02aaA39b223FE8D0A0e5C4F27eAD9083C756Cc2",
    "0xE592427A0AEce92De3Edee1F18E0157C05861564"
  ],
  "numDeployments": 1,
  "solcInputHash": "e7497617de4cc892bf4b2764a1c7db11",
  "bytecode": "0x60806040523480156200001157600080fd5b5060405162000e1538038062000e158339818101604052810190620000379190620001b1565b826000806101000a81548173ffffffffffffffffffffffffffffffffffffffff021916908373ffffffffffffffffffffffffffffffffffffffff16021790555081600160006101000a81548173ffffffffffffffffffffffffffffffffffffffff021916908373ffffffffffffffffffffffffffffffffffffffff16021790555080600260006101000a81548173ffffffffffffffffffffffffffffffffffffffff021916908373ffffffffffffffffffffffffffffffffffffffff1602179055505050506200020d565b600080fd5b600073ffffffffffffffffffffffffffffffffffffffff82169050919050565b6000620001348262000107565b9050919050565b620001468162000127565b81146200015257600080fd5b50565b60008151905062000166816200013b565b92915050565b6000620001798262000127565b9050919050565b6200018b816200016c565b81146200019757600080fd5b50565b600081519050620001ab8162000180565b92915050565b600080600060608486031215620001cd57620001cc62000102565b5b6000620001dd8682870162000155565b9350506020620001f08682870162000155565b925050604062000203868287016200019a565b9150509250925092565b610bf8806200021d6000396000f3fe608060405234801561001057600080fd5b50600436106100575760003560e01c80633d0171ff1461005c5780633fc8cef31461008c57806354cf2aeb146100aa578063c31c9c07146100c8578063f4b9fa75146100e6575b600080fd5b610076600480360381019061007191906106b8565b610104565b60405161008391906106f4565b60405180910390f35b61009461035a565b6040516100a19190610750565b60405180910390f35b6100b2610380565b6040516100bf9190610789565b60405180910390f35b6100d0610386565b6040516100dd9190610803565b60405180910390f35b6100ee6103ac565b6040516100fb9190610750565b60405180910390f35b6000610134600160009054906101000a900473ffffffffffffffffffffffffffffffffffffffff163330856103d0565b610183600160009054906101000a900473ffffffffffffffffffffffffffffffffffffffff16600260009054906101000a900473ffffffffffffffffffffffffffffffffffffffff1684610528565b6000604051806101000160405280600160009054906101000a900473ffffffffffffffffffffffffffffffffffffffff1673ffffffffffffffffffffffffffffffffffffffff16815260200160008054906101000a900473ffffffffffffffffffffffffffffffffffffffff1673ffffffffffffffffffffffffffffffffffffffff168152602001610bb862ffffff1681526020013373ffffffffffffffffffffffffffffffffffffffff16815260200142815260200184815260200160008152602001600073ffffffffffffffffffffffffffffffffffffffff168152509050600260009054906101000a900473ffffffffffffffffffffffffffffffffffffffff1673ffffffffffffffffffffffffffffffffffffffff1663414bf389826040518263ffffffff1660e01b81526004016102bf91906108fc565b6020604051808303816000875af11580156102de573d6000803e3d6000fd5b505050506040513d601f19601f82011682018060405250810190610302919061092d565b91503373ffffffffffffffffffffffffffffffffffffffff167fe9424ebb57e024e8746e4d4881a5cfea91e3f0f2d736d5da9e857ea4ecfd6bdb848460405161034c92919061095a565b60405180910390a250919050565b600160009054906101000a900473ffffffffffffffffffffffffffffffffffffffff1681565b610bb881565b600260009054906101000a900473ffffffffffffffffffffffffffffffffffffffff1681565b60008054906101000a900473ffffffffffffffffffffffffffffffffffffffff1681565b6000808573ffffffffffffffffffffffffffffffffffffffff166323b872dd60e01b86868660405160240161040793929190610983565b604051602081830303815290604052907bffffffffffffffffffffffffffffffffffffffffffffffffffffffff19166020820180517bffffffffffffffffffffffffffffffffffffffffffffffffffffffff83818316178352505050506040516104719190610a34565b6000604051808303816000865af19150503d80600081146104ae576040519150601f19603f3d011682016040523d82523d6000602084013e6104b3565b606091505b50915091508180156104e157506000815114806104e05750808060200190518101906104df9190610a83565b5b5b610520576040517f08c379a000000000000000000000000000000000000000000000000000000000815260040161051790610b0d565b60405180910390fd5b505050505050565b6000808473ffffffffffffffffffffffffffffffffffffffff1663095ea7b360e01b858560405160240161055d929190610b2d565b604051602081830303815290604052907bffffffffffffffffffffffffffffffffffffffffffffffffffffffff19166020820180517bffffffffffffffffffffffffffffffffffffffffffffffffffffffff83818316178352505050506040516105c79190610a34565b6000604051808303816000865af19150503d8060008114610604576040519150601f19603f3d011682016040523d82523d6000602084013e610609565b606091505b509150915081801561063757506000815114806106365750808060200190518101906106359190610a83565b5b5b610676576040517f08c379a000000000000000000000000000000000000000000000000000000000815260040161066d90610ba2565b60405180910390fd5b5050505050565b600080fd5b6000819050919050565b61069581610682565b81146106a057600080fd5b50565b6000813590506106b28161068c565b92915050565b6000602082840312156106ce576106cd61067d565b5b60006106dc848285016106a3565b91505092915050565b6106ee81610682565b82525050565b600060208201905061070960008301846106e5565b92915050565b600073ffffffffffffffffffffffffffffffffffffffff82169050919050565b600061073a8261070f565b9050919050565b61074a8161072f565b82525050565b60006020820190506107656000830184610741565b92915050565b600062ffffff82169050919050565b6107838161076b565b82525050565b600060208201905061079e600083018461077a565b92915050565b6000819050919050565b60006107c96107c46107bf8461070f565b6107a4565b61070f565b9050919050565b60006107db826107ae565b9050919050565b60006107ed826107d0565b9050919050565b6107fd816107e2565b82525050565b600060208201905061081860008301846107f4565b92915050565b6108278161072f565b82525050565b6108368161076b565b82525050565b61084581610682565b82525050565b6108548161070f565b82525050565b61010082016000820151610871600085018261081e565b506020820151610884602085018261081e565b506040820151610897604085018261082d565b5060608201516108aa606085018261081e565b5060808201516108bd608085018261083c565b5060a08201516108d060a085018261083c565b5060c08201516108e360c085018261083c565b5060e08201516108f660e085018261084b565b50505050565b600061010082019050610912600083018461085a565b92915050565b6000815190506109278161068c565b92915050565b6000602082840312156109435761094261067d565b5b600061095184828501610918565b91505092915050565b600060408201905061096f60008301856106e5565b61097c60208301846106e5565b9392505050565b60006060820190506109986000830186610741565b6109a56020830185610741565b6109b260408301846106e5565b949350505050565b600081519050919050565b600081905092915050565b60005b838110156109ee5780820151818401526020810190506109d3565b838111156109fd576000848401525b50505050565b6000610a0e826109ba565b610a1881856109c5565b9350610a288185602086016109d0565b80840191505092915050565b6000610a408284610a03565b915081905092915050565b60008115159050919050565b610a6081610a4b565b8114610a6b57600080fd5b50565b600081519050610a7d81610a57565b92915050565b600060208284031215610a9957610a9861067d565b5b6000610aa784828501610a6e565b91505092915050565b600082825260208201905092915050565b7f5354460000000000000000000000000000000000000000000000000000000000600082015250565b6000610af7600383610ab0565b9150610b0282610ac1565b602082019050919050565b60006020820190508181036000830152610b2681610aea565b9050919050565b6000604082019050610b426000830185610741565b610b4f60208301846106e5565b9392505050565b7f5341000000000000000000000000000000000000000000000000000000000000600082015250565b6000610b8c600283610ab0565b9150610b9782610b56565b602082019050919050565b60006020820190508181036000830152610bbb81610b7f565b905091905056fea264697066735822122031c69a6f8914f5018476a22a3e7d2a2cec1dd31127202d66a56120fff17bd86f64736f6c634300080a0033",
  "devdoc": {
    "kind": "dev",
    "methods": {},
    "version": 1
  },
  "userdoc": {
    "kind": "user",
    "methods": {},
    "version": 1
  },
  "storageLayout": {
    "storage": [
      {
        "astId": 3083,
        "contract": "contracts/utils/SwapRouter.sol:SwapRouter",
        "label": "dai",
        "offset": 0,
        "slot": "0",
        "type": "t_address"
      },
      {
        "astId": 3085,
        "contract": "contracts/utils/SwapRouter.sol:SwapRouter",
        "label": "weth",
        "offset": 0,
        "slot": "1",
        "type": "t_address"
      },
      {
        "astId": 3088,
        "contract": "contracts/utils/SwapRouter.sol:SwapRouter",
        "label": "swapRouter",
        "offset": 0,
        "slot": "2",
        "type": "t_contract(ISwapRouter)1951"
      }
    ],
    "types": {
      "t_address": {
        "encoding": "inplace",
        "label": "address",
        "numberOfBytes": "20"
      },
      "t_contract(ISwapRouter)1951": {
        "encoding": "inplace",
        "label": "contract ISwapRouter",
        "numberOfBytes": "20"
      }
    }
  }
}